{"abi":[{"type":"function","name":"agentList","inputs":[{"name":"","type":"uint256","internalType":"uint256"}],"outputs":[{"name":"","type":"address","internalType":"address"}],"stateMutability":"view"},{"type":"function","name":"agents","inputs":[{"name":"a","type":"address","internalType":"address"}],"outputs":[{"name":"","type":"tuple","internalType":"struct AgentRegistry.Agent","components":[{"name":"wallet","type":"address","internalType":"address payable"},{"name":"endpoint","type":"string","internalType":"string"},{"name":"capability","type":"string","internalType":"string"},{"name":"pricePerTask","type":"uint256","internalType":"uint256"},{"name":"active","type":"bool","internalType":"bool"}]}],"stateMutability":"view"},{"type":"function","name":"deactivate","inputs":[],"outputs":[],"stateMutability":"nonpayable"},{"type":"function","name":"findByCapability","inputs":[{"name":"capability","type":"string","internalType":"string"}],"outputs":[{"name":"","type":"address[]","internalType":"address[]"}],"stateMutability":"view"},{"type":"function","name":"register","inputs":[{"name":"endpoint","type":"string","internalType":"string"},{"name":"capability","type":"string","internalType":"string"},{"name":"pricePerTask","type":"uint256","internalType":"uint256"}],"outputs":[],"stateMutability":"nonpayable"},{"type":"function","name":"totalAgents","inputs":[],"outputs":[{"name":"","type":"uint256","internalType":"uint256"}],"stateMutability":"view"},{"type":"function","name":"update","inputs":[{"name":"endpoint","type":"string","internalType":"string"},{"name":"pricePerTask","type":"uint256","internalType":"uint256"}],"outputs":[],"stateMutability":"nonpayable"},{"type":"event","name":"AgentDeactivated","inputs":[{"name":"agent","type":"address","indexed":true,"internalType":"address"}],"anonymous":false},{"type":"event","name":"AgentRegistered","inputs":[{"name":"agent","type":"address","indexed":true,"internalType":"address"},{"name":"capability","type":"string","indexed":false,"internalType":"string"},{"name":"price","type":"uint256","indexed":false,"internalType":"uint256"}],"anonymous":false},{"type":"event","name":"AgentUpdated","inputs":[{"name":"agent","type":"address","indexed":true,"internalType":"address"}],"anonymous":false},{"type":"error","name":"EmptyCapability","inputs":[]},{"type":"error","name":"NotRegistered","inputs":[]}],"bytecode":{"object":"0x6080604052348015600e575f5ffd5b506117c48061001c5f395ff3fe608060405234801561000f575f5ffd5b506004361061007b575f3560e01c806351b42b001161005957806351b42b00146100fb578063c505371214610105578063e8a6055814610123578063fd66091e1461013f5761007b565b80632f80c54f1461007f57806336b3b3f4146100af5780634ee5c2ee146100df575b5f5ffd5b61009960048036038101906100949190610ce0565b61016f565b6040516100a69190610d4a565b60405180910390f35b6100c960048036038101906100c49190610dc4565b6101aa565b6040516100d69190610ec6565b60405180910390f35b6100f960048036038101906100f49190610ee6565b61054b565b005b6101036106a8565b005b61010d610743565b60405161011a9190610f52565b60405180910390f35b61013d60048036038101906101389190610f6b565b61074f565b005b61015960048036038101906101549190611026565b610a73565b6040516101669190611184565b60405180910390f35b6001818154811061017e575f80fd5b905f5260205f20015f915054906101000a900473ffffffffffffffffffffffffffffffffffffffff1681565b60605f83836040516101bd9291906111e0565b604051809103902090505f5f5b600180549050811015610318575f5f600183815481106101ed576101ec6111f8565b5b905f5260205f20015f9054906101000a900473ffffffffffffffffffffffffffffffffffffffff1673ffffffffffffffffffffffffffffffffffffffff1673ffffffffffffffffffffffffffffffffffffffff1681526020019081526020015f206004015f9054906101000a900460ff1680156102f75750825f5f6001848154811061027c5761027b6111f8565b5b905f5260205f20015f9054906101000a900473ffffffffffffffffffffffffffffffffffffffff1673ffffffffffffffffffffffffffffffffffffffff1673ffffffffffffffffffffffffffffffffffffffff1681526020019081526020015f206002016040516102ed9190611314565b6040518091039020145b1561030b57818061030790611357565b9250505b80806001019150506101ca565b505f8167ffffffffffffffff8111156103345761033361139e565b5b6040519080825280602002602001820160405280156103625781602001602082028036833780820191505090505b5090505f5f5b60018054905081101561053d575f5f6001838154811061038b5761038a6111f8565b5b905f5260205f20015f9054906101000a900473ffffffffffffffffffffffffffffffffffffffff1673ffffffffffffffffffffffffffffffffffffffff1673ffffffffffffffffffffffffffffffffffffffff1681526020019081526020015f206004015f9054906101000a900460ff1680156104955750845f5f6001848154811061041a576104196111f8565b5b905f5260205f20015f9054906101000a900473ffffffffffffffffffffffffffffffffffffffff1673ffffffffffffffffffffffffffffffffffffffff1673ffffffffffffffffffffffffffffffffffffffff1681526020019081526020015f2060020160405161048b9190611314565b6040518091039020145b1561053057600181815481106104ae576104ad6111f8565b5b905f5260205f20015f9054906101000a900473ffffffffffffffffffffffffffffffffffffffff168383806104e290611357565b9450815181106104f5576104f46111f8565b5b602002602001019073ffffffffffffffffffffffffffffffffffffffff16908173ffffffffffffffffffffffffffffffffffffffff16815250505b8080600101915050610368565b508194505050505092915050565b5f5f3373ffffffffffffffffffffffffffffffffffffffff1673ffffffffffffffffffffffffffffffffffffffff1681526020019081526020015f206004015f9054906101000a900460ff166105cd576040517faba4733900000000000000000000000000000000000000000000000000000000815260040160405180910390fd5b82825f5f3373ffffffffffffffffffffffffffffffffffffffff1673ffffffffffffffffffffffffffffffffffffffff1681526020019081526020015f20600101918261061b929190611586565b50805f5f3373ffffffffffffffffffffffffffffffffffffffff1673ffffffffffffffffffffffffffffffffffffffff1681526020019081526020015f20600301819055503373ffffffffffffffffffffffffffffffffffffffff167fe9f337c154e801e0f86b6bc993df9a2cd349bb210385592c7a52e38ea726334f60405160405180910390a2505050565b5f5f5f3373ffffffffffffffffffffffffffffffffffffffff1673ffffffffffffffffffffffffffffffffffffffff1681526020019081526020015f206004015f6101000a81548160ff0219169083151502179055503373ffffffffffffffffffffffffffffffffffffffff167fa58c733780f5c1527d6106ff1e731cbf2e9ffc0eb11ad399ca33ea55f057ddf460405160405180910390a2565b5f600180549050905090565b5f838390500361078b576040517fa2289ac500000000000000000000000000000000000000000000000000000000815260040160405180910390fd5b5f73ffffffffffffffffffffffffffffffffffffffff165f5f3373ffffffffffffffffffffffffffffffffffffffff1673ffffffffffffffffffffffffffffffffffffffff1681526020019081526020015f205f015f9054906101000a900473ffffffffffffffffffffffffffffffffffffffff1673ffffffffffffffffffffffffffffffffffffffff160361087c57600133908060018154018082558091505060019003905f5260205f20015f9091909190916101000a81548173ffffffffffffffffffffffffffffffffffffffff021916908373ffffffffffffffffffffffffffffffffffffffff1602179055505b6040518060a001604052803373ffffffffffffffffffffffffffffffffffffffff16815260200186868080601f0160208091040260200160405190810160405280939291908181526020018383808284375f81840152601f19601f82011690508083019250505050505050815260200184848080601f0160208091040260200160405190810160405280939291908181526020018383808284375f81840152601f19601f820116905080830192505050505050508152602001828152602001600115158152505f5f3373ffffffffffffffffffffffffffffffffffffffff1673ffffffffffffffffffffffffffffffffffffffff1681526020019081526020015f205f820151815f015f6101000a81548173ffffffffffffffffffffffffffffffffffffffff021916908373ffffffffffffffffffffffffffffffffffffffff16021790555060208201518160010190816109d79190611653565b5060408201518160020190816109ed9190611653565b50606082015181600301556080820151816004015f6101000a81548160ff0219169083151502179055509050503373ffffffffffffffffffffffffffffffffffffffff167f023c5efe572c42192271951adb0e77f97d7fc84bc761d026189ac08617346824848484604051610a649392919061175e565b60405180910390a25050505050565b610a7b610c61565b5f5f8373ffffffffffffffffffffffffffffffffffffffff1673ffffffffffffffffffffffffffffffffffffffff1681526020019081526020015f206040518060a00160405290815f82015f9054906101000a900473ffffffffffffffffffffffffffffffffffffffff1673ffffffffffffffffffffffffffffffffffffffff1673ffffffffffffffffffffffffffffffffffffffff168152602001600182018054610b2690611252565b80601f0160208091040260200160405190810160405280929190818152602001828054610b5290611252565b8015610b9d5780601f10610b7457610100808354040283529160200191610b9d565b820191905f5260205f20905b815481529060010190602001808311610b8057829003601f168201915b50505050508152602001600282018054610bb690611252565b80601f0160208091040260200160405190810160405280929190818152602001828054610be290611252565b8015610c2d5780601f10610c0457610100808354040283529160200191610c2d565b820191905f5260205f20905b815481529060010190602001808311610c1057829003601f168201915b5050505050815260200160038201548152602001600482015f9054906101000a900460ff1615151515815250509050919050565b6040518060a001604052805f73ffffffffffffffffffffffffffffffffffffffff16815260200160608152602001606081526020015f81526020015f151581525090565b5f5ffd5b5f5ffd5b5f819050919050565b610cbf81610cad565b8114610cc9575f5ffd5b50565b5f81359050610cda81610cb6565b92915050565b5f60208284031215610cf557610cf4610ca5565b5b5f610d0284828501610ccc565b91505092915050565b5f73ffffffffffffffffffffffffffffffffffffffff82169050919050565b5f610d3482610d0b565b9050919050565b610d4481610d2a565b82525050565b5f602082019050610d5d5f830184610d3b565b92915050565b5f5ffd5b5f5ffd5b5f5ffd5b5f5f83601f840112610d8457610d83610d63565b5b8235905067ffffffffffffffff811115610da157610da0610d67565b5b602083019150836001820283011115610dbd57610dbc610d6b565b5b9250929050565b5f5f60208385031215610dda57610dd9610ca5565b5b5f83013567ffffffffffffffff811115610df757610df6610ca9565b5b610e0385828601610d6f565b92509250509250929050565b5f81519050919050565b5f82825260208201905092915050565b5f819050602082019050919050565b610e4181610d2a565b82525050565b5f610e528383610e38565b60208301905092915050565b5f602082019050919050565b5f610e7482610e0f565b610e7e8185610e19565b9350610e8983610e29565b805f5b83811015610eb9578151610ea08882610e47565b9750610eab83610e5e565b925050600181019050610e8c565b5085935050505092915050565b5f6020820190508181035f830152610ede8184610e6a565b905092915050565b5f5f5f60408486031215610efd57610efc610ca5565b5b5f84013567ffffffffffffffff811115610f1a57610f19610ca9565b5b610f2686828701610d6f565b93509350506020610f3986828701610ccc565b9150509250925092565b610f4c81610cad565b82525050565b5f602082019050610f655f830184610f43565b92915050565b5f5f5f5f5f60608688031215610f8457610f83610ca5565b5b5f86013567ffffffffffffffff811115610fa157610fa0610ca9565b5b610fad88828901610d6f565b9550955050602086013567ffffffffffffffff811115610fd057610fcf610ca9565b5b610fdc88828901610d6f565b93509350506040610fef88828901610ccc565b9150509295509295909350565b61100581610d2a565b811461100f575f5ffd5b50565b5f8135905061102081610ffc565b92915050565b5f6020828403121561103b5761103a610ca5565b5b5f61104884828501611012565b91505092915050565b5f61105b82610d0b565b9050919050565b61106b81611051565b82525050565b5f81519050919050565b5f82825260208201905092915050565b8281835e5f83830152505050565b5f601f19601f8301169050919050565b5f6110b382611071565b6110bd818561107b565b93506110cd81856020860161108b565b6110d681611099565b840191505092915050565b6110ea81610cad565b82525050565b5f8115159050919050565b611104816110f0565b82525050565b5f60a083015f83015161111f5f860182611062565b506020830151848203602086015261113782826110a9565b9150506040830151848203604086015261115182826110a9565b915050606083015161116660608601826110e1565b50608083015161117960808601826110fb565b508091505092915050565b5f6020820190508181035f83015261119c818461110a565b905092915050565b5f81905092915050565b828183375f83830152505050565b5f6111c783856111a4565b93506111d48385846111ae565b82840190509392505050565b5f6111ec8284866111bc565b91508190509392505050565b7f4e487b71000000000000000000000000000000000000000000000000000000005f52603260045260245ffd5b7f4e487b71000000000000000000000000000000000000000000000000000000005f52602260045260245ffd5b5f600282049050600182168061126957607f821691505b60208210810361127c5761127b611225565b5b50919050565b5f819050815f5260205f209050919050565b5f81546112a081611252565b6112aa81866111a4565b9450600182165f81146112c457600181146112d95761130b565b60ff198316865281151582028601935061130b565b6112e285611282565b5f5b83811015611303578154818901526001820191506020810190506112e4565b838801955050505b50505092915050565b5f61131f8284611294565b915081905092915050565b7f4e487b71000000000000000000000000000000000000000000000000000000005f52601160045260245ffd5b5f61136182610cad565b91507fffffffffffffffffffffffffffffffffffffffffffffffffffffffffffffffff82036113935761139261132a565b5b600182019050919050565b7f4e487b71000000000000000000000000000000000000000000000000000000005f52604160045260245ffd5b5f82905092915050565b5f819050815f5260205f209050919050565b5f6020601f8301049050919050565b5f82821b905092915050565b5f600883026114317fffffffffffffffffffffffffffffffffffffffffffffffffffffffffffffffff826113f6565b61143b86836113f6565b95508019841693508086168417925050509392505050565b5f819050919050565b5f61147661147161146c84610cad565b611453565b610cad565b9050919050565b5f819050919050565b61148f8361145c565b6114a361149b8261147d565b848454611402565b825550505050565b5f5f905090565b6114ba6114ab565b6114c5818484611486565b505050565b5f5b828110156114eb576114e05f8284016114b2565b6001810190506114cc565b505050565b601f82111561153e578282111561153d5761150a816113d5565b611513836113e7565b61151c856113e7565b6020861015611529575f90505b808301611538828403826114ca565b505050505b5b505050565b5f82821c905092915050565b5f61155e5f1984600802611543565b1980831691505092915050565b5f611576838361154f565b9150826002028217905092915050565b61159083836113cb565b67ffffffffffffffff8111156115a9576115a861139e565b5b6115b38254611252565b6115be8282856114f0565b5f601f8311600181146115eb575f84156115d9578287013590505b6115e3858261156b565b86555061164a565b601f1984166115f9866113d5565b5f5b82811015611620578489013582556001820191506020850194506020810190506115fb565b8683101561163d5784890135611639601f89168261154f565b8355505b6001600288020188555050505b50505050505050565b61165c82611071565b67ffffffffffffffff8111156116755761167461139e565b5b61167f8254611252565b61168a8282856114f0565b5f60209050601f8311600181146116bb575f84156116a9578287015190505b6116b3858261156b565b86555061171a565b601f1984166116c9866113d5565b5f5b828110156116f0578489015182556001820191506020850194506020810190506116cb565b8683101561170d5784890151611709601f89168261154f565b8355505b6001600288020188555050505b505050505050565b5f82825260208201905092915050565b5f61173d8385611722565b935061174a8385846111ae565b61175383611099565b840190509392505050565b5f6040820190508181035f830152611777818587611732565b90506117866020830184610f43565b94935050505056fea2646970667358221220d45925d7e7fce7b46f5309246e80fb2eb80f8835efaff4e4dba5d3d75d2e998d64736f6c63430008230033","linkReferences":{}},"methodIdentifiers":{"agentList(uint256)":"2f80c54f","agents(address)":"fd66091e","deactivate()":"51b42b00","findByCapability(string)":"36b3b3f4","register(string,string,uint256)":"e8a60558","totalAgents()":"c5053712","update(string,uint256)":"4ee5c2ee"},"id":16}