{"abi":[{"type":"function","name":"getGranteePerms","inputs":[{"name":"grantee","type":"address","internalType":"address"}],"outputs":[{"name":"","type":"uint256[]","internalType":"uint256[]"}],"stateMutability":"view"},{"type":"function","name":"grantPermission","inputs":[{"name":"grantee","type":"address","internalType":"address"},{"name":"allowance","type":"uint256","internalType":"uint256"},{"name":"duration","type":"uint256","internalType":"uint256"}],"outputs":[{"name":"","type":"uint256","internalType":"uint256"}],"stateMutability":"payable"},{"type":"function","name":"granteePerms","inputs":[{"name":"","type":"address","internalType":"address"},{"name":"","type":"uint256","internalType":"uint256"}],"outputs":[{"name":"","type":"uint256","internalType":"uint256"}],"stateMutability":"view"},{"type":"function","name":"permCount","inputs":[],"outputs":[{"name":"","type":"uint256","internalType":"uint256"}],"stateMutability":"view"},{"type":"function","name":"permissions","inputs":[{"name":"","type":"uint256","internalType":"uint256"}],"outputs":[{"name":"granter","type":"address","internalType":"address"},{"name":"grantee","type":"address","internalType":"address"},{"name":"allowance","type":"uint256","internalType":"uint256"},{"name":"spent","type":"uint256","internalType":"uint256"},{"name":"expiry","type":"uint256","internalType":"uint256"},{"name":"revoked","type":"bool","internalType":"bool"}],"stateMutability":"view"},{"type":"function","name":"revokePermission","inputs":[{"name":"permId","type":"uint256","internalType":"uint256"}],"outputs":[],"stateMutability":"nonpayable"},{"type":"function","name":"usePermission","inputs":[{"name":"permId","type":"uint256","internalType":"uint256"},{"name":"recipient","type":"address","internalType":"address payable"},{"name":"amount","type":"uint256","internalType":"uint256"}],"outputs":[],"stateMutability":"nonpayable"},{"type":"event","name":"PermissionGranted","inputs":[{"name":"permId","type":"uint256","indexed":true,"internalType":"uint256"},{"name":"granter","type":"address","indexed":true,"internalType":"address"},{"name":"grantee","type":"address","indexed":true,"internalType":"address"},{"name":"allowance","type":"uint256","indexed":false,"internalType":"uint256"},{"name":"expiry","type":"uint256","indexed":false,"internalType":"uint256"}],"anonymous":false},{"type":"event","name":"PermissionRevoked","inputs":[{"name":"permId","type":"uint256","indexed":true,"internalType":"uint256"}],"anonymous":false},{"type":"event","name":"PermissionUsed","inputs":[{"name":"permId","type":"uint256","indexed":true,"internalType":"uint256"},{"name":"amount","type":"uint256","indexed":false,"internalType":"uint256"}],"anonymous":false}],"bytecode":{"object":"0x6080604052348015600e575f80fd5b5061130f8061001c5f395ff3fe60806040526004361061006f575f3560e01c8063645f977b1161004d578063645f977b146101205780638e1dc4781461014a578063980fd97814610186578063f55e822d146101ae5761006f565b80633a1c1b1d1461007357806358886dba146100af5780635ee2429b146100f0575b5f80fd5b34801561007e575f80fd5b5061009960048036038101906100949190610ae9565b6101d6565b6040516100a69190610b36565b60405180910390f35b3480156100ba575f80fd5b506100d560048036038101906100d09190610b4f565b610201565b6040516100e796959493929190610ba3565b60405180910390f35b61010a60048036038101906101059190610c02565b610283565b6040516101179190610b36565b60405180910390f35b34801561012b575f80fd5b506101346104fe565b6040516101419190610b36565b60405180910390f35b348015610155575f80fd5b50610170600480360381019061016b9190610c52565b610503565b60405161017d9190610d34565b60405180910390f35b348015610191575f80fd5b506101ac60048036038101906101a79190610d8f565b610596565b005b3480156101b9575f80fd5b506101d460048036038101906101cf9190610b4f565b61082a565b005b6002602052815f5260405f2081815481106101ef575f80fd5b905f5260205f20015f91509150505481565b6001602052805f5260405f205f91509050805f015f9054906101000a900473ffffffffffffffffffffffffffffffffffffffff1690806001015f9054906101000a900473ffffffffffffffffffffffffffffffffffffffff1690806002015490806003015490806004015490806005015f9054906101000a900460ff16905086565b5f8234146102c6576040517f08c379a00000000000000000000000000000000000000000000000000000000081526004016102bd90610e39565b60405180910390fd5b5f805f8154809291906102d890610e84565b9190505590506040518060c001604052803373ffffffffffffffffffffffffffffffffffffffff1681526020018673ffffffffffffffffffffffffffffffffffffffff1681526020018581526020015f815260200184426103399190610ecb565b81526020015f151581525060015f8381526020019081526020015f205f820151815f015f6101000a81548173ffffffffffffffffffffffffffffffffffffffff021916908373ffffffffffffffffffffffffffffffffffffffff1602179055506020820151816001015f6101000a81548173ffffffffffffffffffffffffffffffffffffffff021916908373ffffffffffffffffffffffffffffffffffffffff16021790555060408201518160020155606082015181600301556080820151816004015560a0820151816005015f6101000a81548160ff02191690831515021790555090505060025f8673ffffffffffffffffffffffffffffffffffffffff1673ffffffffffffffffffffffffffffffffffffffff1681526020019081526020015f2081908060018154018082558091505060019003905f5260205f20015f90919091909150558473ffffffffffffffffffffffffffffffffffffffff163373ffffffffffffffffffffffffffffffffffffffff16827ff8df449da0e7b3345f2e56522310339e79caf40121b8320c0d184383d91f28eb8787426104dd9190610ecb565b6040516104eb929190610efe565b60405180910390a4809150509392505050565b5f5481565b606060025f8373ffffffffffffffffffffffffffffffffffffffff1673ffffffffffffffffffffffffffffffffffffffff1681526020019081526020015f2080548060200260200160405190810160405280929190818152602001828054801561058a57602002820191905f5260205f20905b815481526020019060010190808311610576575b50505050509050919050565b5f60015f8581526020019081526020015f209050806001015f9054906101000a900473ffffffffffffffffffffffffffffffffffffffff1673ffffffffffffffffffffffffffffffffffffffff163373ffffffffffffffffffffffffffffffffffffffff161461063b576040517f08c379a000000000000000000000000000000000000000000000000000000000815260040161063290610f6f565b60405180910390fd5b806005015f9054906101000a900460ff161561068c576040517f08c379a000000000000000000000000000000000000000000000000000000000815260040161068390610fd7565b60405180910390fd5b80600401544211156106d3576040517f08c379a00000000000000000000000000000000000000000000000000000000081526004016106ca9061103f565b60405180910390fd5b80600201548282600301546106e89190610ecb565b1115610729576040517f08c379a0000000000000000000000000000000000000000000000000000000008152600401610720906110a7565b60405180910390fd5b81816003015f82825461073c9190610ecb565b925050819055505f8373ffffffffffffffffffffffffffffffffffffffff1683604051610768906110f2565b5f6040518083038185875af1925050503d805f81146107a2576040519150601f19603f3d011682016040523d82523d5f602084013e6107a7565b606091505b50509050806107eb576040517f08c379a00000000000000000000000000000000000000000000000000000000081526004016107e290611150565b60405180910390fd5b847fccfc99d5955461fd7c8e5df88022f69ff4327e8dd9142b2bc1a06e87743a08ad8460405161081b9190610b36565b60405180910390a25050505050565b5f60015f8381526020019081526020015f209050805f015f9054906101000a900473ffffffffffffffffffffffffffffffffffffffff1673ffffffffffffffffffffffffffffffffffffffff163373ffffffffffffffffffffffffffffffffffffffff16146108ce576040517f08c379a00000000000000000000000000000000000000000000000000000000081526004016108c5906111b8565b60405180910390fd5b806005015f9054906101000a900460ff161561091f576040517f08c379a000000000000000000000000000000000000000000000000000000000815260040161091690611220565b60405180910390fd5b6001816005015f6101000a81548160ff0219169083151502179055505f81600301548260020154610950919061123e565b90505f811115610a26575f825f015f9054906101000a900473ffffffffffffffffffffffffffffffffffffffff1673ffffffffffffffffffffffffffffffffffffffff16826040516109a1906110f2565b5f6040518083038185875af1925050503d805f81146109db576040519150601f19603f3d011682016040523d82523d5f602084013e6109e0565b606091505b5050905080610a24576040517f08c379a0000000000000000000000000000000000000000000000000000000008152600401610a1b906112bb565b60405180910390fd5b505b827fc8a9a6a181cb55eed6156d6dd78a38f724344c00428a256435c007f2bcf3511460405160405180910390a2505050565b5f80fd5b5f73ffffffffffffffffffffffffffffffffffffffff82169050919050565b5f610a8582610a5c565b9050919050565b610a9581610a7b565b8114610a9f575f80fd5b50565b5f81359050610ab081610a8c565b92915050565b5f819050919050565b610ac881610ab6565b8114610ad2575f80fd5b50565b5f81359050610ae381610abf565b92915050565b5f8060408385031215610aff57610afe610a58565b5b5f610b0c85828601610aa2565b9250506020610b1d85828601610ad5565b9150509250929050565b610b3081610ab6565b82525050565b5f602082019050610b495f830184610b27565b92915050565b5f60208284031215610b6457610b63610a58565b5b5f610b7184828501610ad5565b91505092915050565b610b8381610a7b565b82525050565b5f8115159050919050565b610b9d81610b89565b82525050565b5f60c082019050610bb65f830189610b7a565b610bc36020830188610b7a565b610bd06040830187610b27565b610bdd6060830186610b27565b610bea6080830185610b27565b610bf760a0830184610b94565b979650505050505050565b5f805f60608486031215610c1957610c18610a58565b5b5f610c2686828701610aa2565b9350506020610c3786828701610ad5565b9250506040610c4886828701610ad5565b9150509250925092565b5f60208284031215610c6757610c66610a58565b5b5f610c7484828501610aa2565b91505092915050565b5f81519050919050565b5f82825260208201905092915050565b5f819050602082019050919050565b610caf81610ab6565b82525050565b5f610cc08383610ca6565b60208301905092915050565b5f602082019050919050565b5f610ce282610c7d565b610cec8185610c87565b9350610cf783610c97565b805f5b83811015610d27578151610d0e8882610cb5565b9750610d1983610ccc565b925050600181019050610cfa565b5085935050505092915050565b5f6020820190508181035f830152610d4c8184610cd8565b905092915050565b5f610d5e82610a5c565b9050919050565b610d6e81610d54565b8114610d78575f80fd5b50565b5f81359050610d8981610d65565b92915050565b5f805f60608486031215610da657610da5610a58565b5b5f610db386828701610ad5565b9350506020610dc486828701610d7b565b9250506040610dd586828701610ad5565b9150509250925092565b5f82825260208201905092915050565b7f6d7573742066756e6420616c6c6f77616e6365000000000000000000000000005f82015250565b5f610e23601383610ddf565b9150610e2e82610def565b602082019050919050565b5f6020820190508181035f830152610e5081610e17565b9050919050565b7f4e487b71000000000000000000000000000000000000000000000000000000005f52601160045260245ffd5b5f610e8e82610ab6565b91507fffffffffffffffffffffffffffffffffffffffffffffffffffffffffffffffff8203610ec057610ebf610e57565b5b600182019050919050565b5f610ed582610ab6565b9150610ee083610ab6565b9250828201905080821115610ef857610ef7610e57565b5b92915050565b5f604082019050610f115f830185610b27565b610f1e6020830184610b27565b9392505050565b7f6e6f74206772616e7465650000000000000000000000000000000000000000005f82015250565b5f610f59600b83610ddf565b9150610f6482610f25565b602082019050919050565b5f6020820190508181035f830152610f8681610f4d565b9050919050565b7f7265766f6b6564000000000000000000000000000000000000000000000000005f82015250565b5f610fc1600783610ddf565b9150610fcc82610f8d565b602082019050919050565b5f6020820190508181035f830152610fee81610fb5565b9050919050565b7f65787069726564000000000000000000000000000000000000000000000000005f82015250565b5f611029600783610ddf565b915061103482610ff5565b602082019050919050565b5f6020820190508181035f8301526110568161101d565b9050919050565b7f6578636565647320616c6c6f77616e63650000000000000000000000000000005f82015250565b5f611091601183610ddf565b915061109c8261105d565b602082019050919050565b5f6020820190508181035f8301526110be81611085565b9050919050565b5f81905092915050565b50565b5f6110dd5f836110c5565b91506110e8826110cf565b5f82019050919050565b5f6110fc826110d2565b9150819050919050565b7f7472616e73666572206661696c656400000000000000000000000000000000005f82015250565b5f61113a600f83610ddf565b915061114582611106565b602082019050919050565b5f6020820190508181035f8301526111678161112e565b9050919050565b7f6e6f74206772616e7465720000000000000000000000000000000000000000005f82015250565b5f6111a2600b83610ddf565b91506111ad8261116e565b602082019050919050565b5f6020820190508181035f8301526111cf81611196565b9050919050565b7f616c7265616479207265766f6b656400000000000000000000000000000000005f82015250565b5f61120a600f83610ddf565b9150611215826111d6565b602082019050919050565b5f6020820190508181035f830152611237816111fe565b9050919050565b5f61124882610ab6565b915061125383610ab6565b925082820390508181111561126b5761126a610e57565b5b92915050565b7f726566756e64206661696c6564000000000000000000000000000000000000005f82015250565b5f6112a5600d83610ddf565b91506112b082611271565b602082019050919050565b5f6020820190508181035f8301526112d281611299565b905091905056fea2646970667358221220239ccabf217ad0e8b822006ef18650e8f14b5d0afa375dd20c69217859e33d6264736f6c634300081a0033","linkReferences":{}},"methodIdentifiers":{"getGranteePerms(address)":"8e1dc478","grantPermission(address,uint256,uint256)":"5ee2429b","granteePerms(address,uint256)":"3a1c1b1d","permCount()":"645f977b","permissions(uint256)":"58886dba","revokePermission(uint256)":"f55e822d","usePermission(uint256,address,uint256)":"980fd978"},"id":22}