{"abi":[{"type":"constructor","inputs":[{"name":"_registry","type":"address","internalType":"address"},{"name":"_permissions","type":"address","internalType":"address"},{"name":"_coordinator","type":"address","internalType":"address"}],"stateMutability":"nonpayable"},{"type":"receive","stateMutability":"payable"},{"type":"function","name":"completeTask","inputs":[{"name":"taskId","type":"uint256","internalType":"uint256"}],"outputs":[],"stateMutability":"nonpayable"},{"type":"function","name":"coordinator","inputs":[],"outputs":[{"name":"","type":"address","internalType":"address"}],"stateMutability":"view"},{"type":"function","name":"createTask","inputs":[{"name":"description","type":"string","internalType":"string"},{"name":"duration","type":"uint256","internalType":"uint256"}],"outputs":[{"name":"","type":"uint256","internalType":"uint256"}],"stateMutability":"payable"},{"type":"function","name":"getAssignedAgents","inputs":[{"name":"taskId","type":"uint256","internalType":"uint256"}],"outputs":[{"name":"","type":"address[]","internalType":"address[]"}],"stateMutability":"view"},{"type":"function","name":"hireAgent","inputs":[{"name":"taskId","type":"uint256","internalType":"uint256"},{"name":"agent","type":"address","internalType":"address"}],"outputs":[],"stateMutability":"nonpayable"},{"type":"function","name":"permissions","inputs":[],"outputs":[{"name":"","type":"address","internalType":"contract GuildPermissions"}],"stateMutability":"view"},{"type":"function","name":"registry","inputs":[],"outputs":[{"name":"","type":"address","internalType":"contract AgentRegistry"}],"stateMutability":"view"},{"type":"function","name":"taskCount","inputs":[],"outputs":[{"name":"","type":"uint256","internalType":"uint256"}],"stateMutability":"view"},{"type":"function","name":"tasks","inputs":[{"name":"","type":"uint256","internalType":"uint256"}],"outputs":[{"name":"requester","type":"address","internalType":"address"},{"name":"description","type":"string","internalType":"string"},{"name":"budget","type":"uint256","internalType":"uint256"},{"name":"permId","type":"uint256","internalType":"uint256"},{"name":"completed","type":"bool","internalType":"bool"}],"stateMutability":"view"},{"type":"event","name":"AgentHired","inputs":[{"name":"taskId","type":"uint256","indexed":true,"internalType":"uint256"},{"name":"agent","type":"address","indexed":true,"internalType":"address"},{"name":"amount","type":"uint256","indexed":false,"internalType":"uint256"}],"anonymous":false},{"type":"event","name":"TaskCompleted","inputs":[{"name":"taskId","type":"uint256","indexed":true,"internalType":"uint256"},{"name":"requester","type":"address","indexed":true,"internalType":"address"},{"name":"refund","type":"uint256","indexed":false,"internalType":"uint256"}],"anonymous":false},{"type":"event","name":"TaskCreated","inputs":[{"name":"taskId","type":"uint256","indexed":true,"internalType":"uint256"},{"name":"requester","type":"address","indexed":true,"internalType":"address"},{"name":"budget","type":"uint256","indexed":false,"internalType":"uint256"},{"name":"permId","type":"uint256","indexed":false,"internalType":"uint256"}],"anonymous":false},{"type":"error","name":"AgentAlreadyPaid","inputs":[]},{"type":"error","name":"AgentInactive","inputs":[]},{"type":"error","name":"InsufficientBudget","inputs":[]},{"type":"error","name":"NotAuthorized","inputs":[]},{"type":"error","name":"NotCoordinator","inputs":[]},{"type":"error","name":"RefundFailed","inputs":[]},{"type":"error","name":"TaskAlreadyCompleted","inputs":[]},{"type":"error","name":"ZeroBudget","inputs":[]}],"bytecode":{"object":"0x60e060405234801561000f575f5ffd5b50604051611b44380380611b4483398181016040528101906100319190610133565b8273ffffffffffffffffffffffffffffffffffffffff1660808173ffffffffffffffffffffffffffffffffffffffff16815250508173ffffffffffffffffffffffffffffffffffffffff1660a08173ffffffffffffffffffffffffffffffffffffffff16815250508073ffffffffffffffffffffffffffffffffffffffff1660c08173ffffffffffffffffffffffffffffffffffffffff1681525050505050610183565b5f5ffd5b5f73ffffffffffffffffffffffffffffffffffffffff82169050919050565b5f610102826100d9565b9050919050565b610112816100f8565b811461011c575f5ffd5b50565b5f8151905061012d81610109565b92915050565b5f5f5f6060848603121561014a576101496100d5565b5b5f6101578682870161011f565b93505060206101688682870161011f565b92505060406101798682870161011f565b9150509250925092565b60805160a05160c05161196d6101d75f395f818161023a0152818161084b0152610aab01525f8181610590015281816106b9015281816109760152610ba801525f818161039f015261086f015261196d5ff3fe608060405260043610610089575f3560e01c80638d977672116100585780638d97767214610140578063ab8c71c014610180578063b6cb58a5146101aa578063bed37db8146101d4578063e1e295581461021057610090565b806304d09ed31461009457806304fe2b34146100bc5780630a009097146100ec5780637b1039991461011657610090565b3661009057005b5f5ffd5b34801561009f575f5ffd5b506100ba60048036038101906100b59190610e28565b610238565b005b6100d660048036038101906100d19190610ec7565b61067c565b6040516100e39190610f33565b60405180910390f35b3480156100f7575f5ffd5b50610100610849565b60405161010d9190610f5b565b60405180910390f35b348015610121575f5ffd5b5061012a61086d565b6040516101379190610fcf565b60405180910390f35b34801561014b575f5ffd5b5061016660048036038101906101619190610fe8565b610891565b60405161017795949392919061109d565b60405180910390f35b34801561018b575f5ffd5b50610194610974565b6040516101a19190611115565b60405180910390f35b3480156101b5575f5ffd5b506101be610998565b6040516101cb9190610f33565b60405180910390f35b3480156101df575f5ffd5b506101fa60048036038101906101f59190610fe8565b61099d565b60405161020791906111e5565b60405180910390f35b34801561021b575f5ffd5b5061023660048036038101906102319190610fe8565b610a3c565b005b7f000000000000000000000000000000000000000000000000000000000000000073ffffffffffffffffffffffffffffffffffffffff163373ffffffffffffffffffffffffffffffffffffffff16146102bd576040517f9ec853e600000000000000000000000000000000000000000000000000000000815260040160405180910390fd5b5f60015f8481526020019081526020015f209050806006015f9054906101000a900460ff1615610319576040517f7fba946d00000000000000000000000000000000000000000000000000000000815260040160405180910390fd5b806005015f8373ffffffffffffffffffffffffffffffffffffffff1673ffffffffffffffffffffffffffffffffffffffff1681526020019081526020015f205f9054906101000a900460ff161561039c576040517f3a62698d00000000000000000000000000000000000000000000000000000000815260040160405180910390fd5b5f7f000000000000000000000000000000000000000000000000000000000000000073ffffffffffffffffffffffffffffffffffffffff1663fd66091e846040518263ffffffff1660e01b81526004016103f69190610f5b565b5f60405180830381865afa158015610410573d5f5f3e3d5ffd5b505050506040513d5f823e3d601f19601f820116820180604052508101906104389190611461565b90508060800151610475576040517fba32abe100000000000000000000000000000000000000000000000000000000815260040160405180910390fd5b8060600151826002015410156104b7576040517f4dd23c8b00000000000000000000000000000000000000000000000000000000815260040160405180910390fd5b6001826005015f8573ffffffffffffffffffffffffffffffffffffffff1673ffffffffffffffffffffffffffffffffffffffff1681526020019081526020015f205f6101000a81548160ff0219169083151502179055508160040183908060018154018082558091505060019003905f5260205f20015f9091909190916101000a81548173ffffffffffffffffffffffffffffffffffffffff021916908373ffffffffffffffffffffffffffffffffffffffff1602179055508060600151826002015f82825461058791906114d5565b925050819055507f000000000000000000000000000000000000000000000000000000000000000073ffffffffffffffffffffffffffffffffffffffff1663980fd9788360030154835f015184606001516040518463ffffffff1660e01b81526004016105f693929190611517565b5f604051808303815f87803b15801561060d575f5ffd5b505af115801561061f573d5f5f3e3d5ffd5b505050508273ffffffffffffffffffffffffffffffffffffffff16847f7d285cc9741ddca237fb19e4e73a51fe9a053ecebd84b06fc478dcdd24f0cab5836060015160405161066e9190610f33565b60405180910390a350505050565b5f5f34036106b6576040517fff97b86100000000000000000000000000000000000000000000000000000000815260040160405180910390fd5b5f7f000000000000000000000000000000000000000000000000000000000000000073ffffffffffffffffffffffffffffffffffffffff16635ee2429b343034876040518563ffffffff1660e01b81526004016107159392919061154c565b60206040518083038185885af1158015610731573d5f5f3e3d5ffd5b50505050506040513d601f19601f820116820180604052508101906107569190611581565b90505f5f5f81548092919061076a906115ac565b9190505590505f60015f8381526020019081526020015f20905033815f015f6101000a81548173ffffffffffffffffffffffffffffffffffffffff021916908373ffffffffffffffffffffffffffffffffffffffff16021790555086868260010191826107d8929190611802565b503481600201819055508281600301819055503373ffffffffffffffffffffffffffffffffffffffff16827ff5ac772f880dc6ed6b50db24e062bbc51818e270ed47533fd9162e5255fa291334866040516108349291906118cf565b60405180910390a38193505050509392505050565b7f000000000000000000000000000000000000000000000000000000000000000081565b7f000000000000000000000000000000000000000000000000000000000000000081565b6001602052805f5260405f205f91509050805f015f9054906101000a900473ffffffffffffffffffffffffffffffffffffffff16908060010180546108d59061162a565b80601f01602080910402602001604051908101604052809291908181526020018280546109019061162a565b801561094c5780601f106109235761010080835404028352916020019161094c565b820191905f5260205f20905b81548152906001019060200180831161092f57829003601f168201915b505050505090806002015490806003015490806006015f9054906101000a900460ff16905085565b7f000000000000000000000000000000000000000000000000000000000000000081565b5f5481565b606060015f8381526020019081526020015f20600401805480602002602001604051908101604052809291908181526020018280548015610a3057602002820191905f5260205f20905b815f9054906101000a900473ffffffffffffffffffffffffffffffffffffffff1673ffffffffffffffffffffffffffffffffffffffff16815260200190600101908083116109e7575b50505050509050919050565b5f60015f8381526020019081526020015f209050805f015f9054906101000a900473ffffffffffffffffffffffffffffffffffffffff1673ffffffffffffffffffffffffffffffffffffffff163373ffffffffffffffffffffffffffffffffffffffff1614158015610afa57507f000000000000000000000000000000000000000000000000000000000000000073ffffffffffffffffffffffffffffffffffffffff163373ffffffffffffffffffffffffffffffffffffffff1614155b15610b31576040517fea8e4eb500000000000000000000000000000000000000000000000000000000815260040160405180910390fd5b806006015f9054906101000a900460ff1615610b79576040517f7fba946d00000000000000000000000000000000000000000000000000000000815260040160405180910390fd5b6001816006015f6101000a81548160ff0219169083151502179055505f5f82600201541115610d14575f4790507f000000000000000000000000000000000000000000000000000000000000000073ffffffffffffffffffffffffffffffffffffffff1663f55e822d84600301546040518263ffffffff1660e01b8152600401610c039190610f33565b5f604051808303815f87803b158015610c1a575f5ffd5b505af1158015610c2c573d5f5f3e3d5ffd5b505050508047610c3c91906114d5565b91505f83600201819055505f821115610d12575f835f015f9054906101000a900473ffffffffffffffffffffffffffffffffffffffff1673ffffffffffffffffffffffffffffffffffffffff1683604051610c9690611923565b5f6040518083038185875af1925050503d805f8114610cd0576040519150601f19603f3d011682016040523d82523d5f602084013e610cd5565b606091505b5050905080610d10576040517ff0c49d4400000000000000000000000000000000000000000000000000000000815260040160405180910390fd5b505b505b815f015f9054906101000a900473ffffffffffffffffffffffffffffffffffffffff1673ffffffffffffffffffffffffffffffffffffffff16837f843af93d40addceac6932508439844b897d4df9e971db326d557e3cdaa9f3ebf83604051610d7d9190610f33565b60405180910390a3505050565b5f604051905090565b5f5ffd5b5f5ffd5b5f819050919050565b610dad81610d9b565b8114610db7575f5ffd5b50565b5f81359050610dc881610da4565b92915050565b5f73ffffffffffffffffffffffffffffffffffffffff82169050919050565b5f610df782610dce565b9050919050565b610e0781610ded565b8114610e11575f5ffd5b50565b5f81359050610e2281610dfe565b92915050565b5f5f60408385031215610e3e57610e3d610d93565b5b5f610e4b85828601610dba565b9250506020610e5c85828601610e14565b9150509250929050565b5f5ffd5b5f5ffd5b5f5ffd5b5f5f83601f840112610e8757610e86610e66565b5b8235905067ffffffffffffffff811115610ea457610ea3610e6a565b5b602083019150836001820283011115610ec057610ebf610e6e565b5b9250929050565b5f5f5f60408486031215610ede57610edd610d93565b5b5f84013567ffffffffffffffff811115610efb57610efa610d97565b5b610f0786828701610e72565b93509350506020610f1a86828701610dba565b9150509250925092565b610f2d81610d9b565b82525050565b5f602082019050610f465f830184610f24565b92915050565b610f5581610ded565b82525050565b5f602082019050610f6e5f830184610f4c565b92915050565b5f819050919050565b5f610f97610f92610f8d84610dce565b610f74565b610dce565b9050919050565b5f610fa882610f7d565b9050919050565b5f610fb982610f9e565b9050919050565b610fc981610faf565b82525050565b5f602082019050610fe25f830184610fc0565b92915050565b5f60208284031215610ffd57610ffc610d93565b5b5f61100a84828501610dba565b91505092915050565b5f81519050919050565b5f82825260208201905092915050565b8281835e5f83830152505050565b5f601f19601f8301169050919050565b5f61105582611013565b61105f818561101d565b935061106f81856020860161102d565b6110788161103b565b840191505092915050565b5f8115159050919050565b61109781611083565b82525050565b5f60a0820190506110b05f830188610f4c565b81810360208301526110c2818761104b565b90506110d16040830186610f24565b6110de6060830185610f24565b6110eb608083018461108e565b9695505050505050565b5f6110ff82610f9e565b9050919050565b61110f816110f5565b82525050565b5f6020820190506111285f830184611106565b92915050565b5f81519050919050565b5f82825260208201905092915050565b5f819050602082019050919050565b61116081610ded565b82525050565b5f6111718383611157565b60208301905092915050565b5f602082019050919050565b5f6111938261112e565b61119d8185611138565b93506111a883611148565b805f5b838110156111d85781516111bf8882611166565b97506111ca8361117d565b9250506001810190506111ab565b5085935050505092915050565b5f6020820190508181035f8301526111fd8184611189565b905092915050565b5f5ffd5b7f4e487b71000000000000000000000000000000000000000000000000000000005f52604160045260245ffd5b61123f8261103b565b810181811067ffffffffffffffff8211171561125e5761125d611209565b5b80604052505050565b5f611270610d8a565b905061127c8282611236565b919050565b5f5ffd5b5f61128f82610dce565b9050919050565b61129f81611285565b81146112a9575f5ffd5b50565b5f815190506112ba81611296565b92915050565b5f5ffd5b5f67ffffffffffffffff8211156112de576112dd611209565b5b6112e78261103b565b9050602081019050919050565b5f611306611301846112c4565b611267565b905082815260208101848484011115611322576113216112c0565b5b61132d84828561102d565b509392505050565b5f82601f83011261134957611348610e66565b5b81516113598482602086016112f4565b91505092915050565b5f8151905061137081610da4565b92915050565b61137f81611083565b8114611389575f5ffd5b50565b5f8151905061139a81611376565b92915050565b5f60a082840312156113b5576113b4611205565b5b6113bf60a0611267565b90505f6113ce848285016112ac565b5f83015250602082015167ffffffffffffffff8111156113f1576113f0611281565b5b6113fd84828501611335565b602083015250604082015167ffffffffffffffff81111561142157611420611281565b5b61142d84828501611335565b604083015250606061144184828501611362565b60608301525060806114558482850161138c565b60808301525092915050565b5f6020828403121561147657611475610d93565b5b5f82015167ffffffffffffffff81111561149357611492610d97565b5b61149f848285016113a0565b91505092915050565b7f4e487b71000000000000000000000000000000000000000000000000000000005f52601160045260245ffd5b5f6114df82610d9b565b91506114ea83610d9b565b9250828203905081811115611502576115016114a8565b5b92915050565b61151181611285565b82525050565b5f60608201905061152a5f830186610f24565b6115376020830185611508565b6115446040830184610f24565b949350505050565b5f60608201905061155f5f830186610f4c565b61156c6020830185610f24565b6115796040830184610f24565b949350505050565b5f6020828403121561159657611595610d93565b5b5f6115a384828501611362565b91505092915050565b5f6115b682610d9b565b91507fffffffffffffffffffffffffffffffffffffffffffffffffffffffffffffffff82036115e8576115e76114a8565b5b600182019050919050565b5f82905092915050565b7f4e487b71000000000000000000000000000000000000000000000000000000005f52602260045260245ffd5b5f600282049050600182168061164157607f821691505b602082108103611654576116536115fd565b5b50919050565b5f819050815f5260205f209050919050565b5f6020601f8301049050919050565b5f82821b905092915050565b5f600883026116b67fffffffffffffffffffffffffffffffffffffffffffffffffffffffffffffffff8261167b565b6116c0868361167b565b95508019841693508086168417925050509392505050565b5f6116f26116ed6116e884610d9b565b610f74565b610d9b565b9050919050565b5f819050919050565b61170b836116d8565b61171f611717826116f9565b848454611687565b825550505050565b5f5f905090565b611736611727565b611741818484611702565b505050565b5f5b828110156117675761175c5f82840161172e565b600181019050611748565b505050565b601f8211156117ba57828211156117b9576117868161165a565b61178f8361166c565b6117988561166c565b60208610156117a5575f90505b8083016117b482840382611746565b505050505b5b505050565b5f82821c905092915050565b5f6117da5f19846008026117bf565b1980831691505092915050565b5f6117f283836117cb565b9150826002028217905092915050565b61180c83836115f3565b67ffffffffffffffff81111561182557611824611209565b5b61182f825461162a565b61183a82828561176c565b5f601f831160018114611867575f8415611855578287013590505b61185f85826117e7565b8655506118c6565b601f1984166118758661165a565b5f5b8281101561189c57848901358255600182019150602085019450602081019050611877565b868310156118b957848901356118b5601f8916826117cb565b8355505b6001600288020188555050505b50505050505050565b5f6040820190506118e25f830185610f24565b6118ef6020830184610f24565b9392505050565b5f81905092915050565b50565b5f61190e5f836118f6565b915061191982611900565b5f82019050919050565b5f61192d82611903565b915081905091905056fea26469706673582212209c943d90f2284644dcc55945ed0701b4bc0798c1d0e8c4c71b78291284fa3b3464736f6c63430008230033","linkReferences":{}},"methodIdentifiers":{"completeTask(uint256)":"e1e29558","coordinator()":"0a009097","createTask(string,uint256)":"04fe2b34","getAssignedAgents(uint256)":"bed37db8","hireAgent(uint256,address)":"04d09ed3","permissions()":"ab8c71c0","registry()":"7b103999","taskCount()":"b6cb58a5","tasks(uint256)":"8d977672"},"id":18}