{"abi":[{"type":"constructor","inputs":[{"name":"_registry","type":"address","internalType":"address"}],"stateMutability":"nonpayable"},{"type":"function","name":"completeTask","inputs":[{"name":"taskId","type":"uint256","internalType":"uint256"}],"outputs":[],"stateMutability":"nonpayable"},{"type":"function","name":"createTask","inputs":[{"name":"description","type":"string","internalType":"string"}],"outputs":[{"name":"","type":"uint256","internalType":"uint256"}],"stateMutability":"payable"},{"type":"function","name":"getAssignedAgents","inputs":[{"name":"taskId","type":"uint256","internalType":"uint256"}],"outputs":[{"name":"","type":"address[]","internalType":"address[]"}],"stateMutability":"view"},{"type":"function","name":"hireAgent","inputs":[{"name":"taskId","type":"uint256","internalType":"uint256"},{"name":"agent","type":"address","internalType":"address"}],"outputs":[],"stateMutability":"nonpayable"},{"type":"function","name":"registry","inputs":[],"outputs":[{"name":"","type":"address","internalType":"contract AgentRegistry"}],"stateMutability":"view"},{"type":"function","name":"taskCount","inputs":[],"outputs":[{"name":"","type":"uint256","internalType":"uint256"}],"stateMutability":"view"},{"type":"function","name":"tasks","inputs":[{"name":"","type":"uint256","internalType":"uint256"}],"outputs":[{"name":"requester","type":"address","internalType":"address"},{"name":"description","type":"string","internalType":"string"},{"name":"budget","type":"uint256","internalType":"uint256"},{"name":"completed","type":"bool","internalType":"bool"}],"stateMutability":"view"},{"type":"event","name":"AgentHired","inputs":[{"name":"taskId","type":"uint256","indexed":true,"internalType":"uint256"},{"name":"agent","type":"address","indexed":true,"internalType":"address"},{"name":"amount","type":"uint256","indexed":false,"internalType":"uint256"}],"anonymous":false},{"type":"event","name":"TaskCompleted","inputs":[{"name":"taskId","type":"uint256","indexed":true,"internalType":"uint256"}],"anonymous":false},{"type":"event","name":"TaskCreated","inputs":[{"name":"taskId","type":"uint256","indexed":true,"internalType":"uint256"},{"name":"requester","type":"address","indexed":true,"internalType":"address"},{"name":"budget","type":"uint256","indexed":false,"internalType":"uint256"}],"anonymous":false}],"bytecode":{"object":"0x608060405234801561000f575f80fd5b50604051611a13380380611a13833981810160405281019061003191906100d4565b805f806101000a81548173ffffffffffffffffffffffffffffffffffffffff021916908373ffffffffffffffffffffffffffffffffffffffff160217905550506100ff565b5f80fd5b5f73ffffffffffffffffffffffffffffffffffffffff82169050919050565b5f6100a38261007a565b9050919050565b6100b381610099565b81146100bd575f80fd5b50565b5f815190506100ce816100aa565b92915050565b5f602082840312156100e9576100e8610076565b5b5f6100f6848285016100c0565b91505092915050565b6119078061010c5f395ff3fe60806040526004361061006f575f3560e01c80638d9776721161004d5780638d977672146100f5578063b6cb58a514610134578063bed37db81461015e578063e1e295581461019a5761006f565b806304d09ed314610073578063111002aa1461009b5780637b103999146100cb575b5f80fd5b34801561007e575f80fd5b5061009960048036038101906100949190610b52565b6101c2565b005b6100b560048036038101906100b09190610bf1565b6105c0565b6040516100c29190610c4b565b60405180910390f35b3480156100d6575f80fd5b506100df6106e8565b6040516100ec9190610cbf565b60405180910390f35b348015610100575f80fd5b5061011b60048036038101906101169190610cd8565b61070b565b60405161012b9493929190610d9c565b60405180910390f35b34801561013f575f80fd5b506101486107e8565b6040516101559190610c4b565b60405180910390f35b348015610169575f80fd5b50610184600480360381019061017f9190610cd8565b6107ee565b6040516101919190610e9d565b60405180910390f35b3480156101a5575f80fd5b506101c060048036038101906101bb9190610cd8565b61088d565b005b5f60025f8481526020019081526020015f209050806005015f9054906101000a900460ff1615610227576040517f08c379a000000000000000000000000000000000000000000000000000000000815260040161021e90610f07565b60405180910390fd5b806004015f8373ffffffffffffffffffffffffffffffffffffffff1673ffffffffffffffffffffffffffffffffffffffff1681526020019081526020015f205f9054906101000a900460ff16156102b3576040517f08c379a00000000000000000000000000000000000000000000000000000000081526004016102aa90610f6f565b60405180910390fd5b5f805f9054906101000a900473ffffffffffffffffffffffffffffffffffffffff1673ffffffffffffffffffffffffffffffffffffffff1663fd66091e846040518263ffffffff1660e01b815260040161030d9190610f8d565b5f60405180830381865afa158015610327573d5f803e3d5ffd5b505050506040513d5f823e3d601f19601f8201168201806040525081019061034f9190611202565b90508060800151610395576040517f08c379a000000000000000000000000000000000000000000000000000000000815260040161038c90611293565b60405180910390fd5b8060600151826002015410156103e0576040517f08c379a00000000000000000000000000000000000000000000000000000000081526004016103d7906112fb565b60405180910390fd5b6001826004015f8573ffffffffffffffffffffffffffffffffffffffff1673ffffffffffffffffffffffffffffffffffffffff1681526020019081526020015f205f6101000a81548160ff0219169083151502179055508160030183908060018154018082558091505060019003905f5260205f20015f9091909190916101000a81548173ffffffffffffffffffffffffffffffffffffffff021916908373ffffffffffffffffffffffffffffffffffffffff1602179055508060600151826002015f8282546104b09190611346565b925050819055505f815f015173ffffffffffffffffffffffffffffffffffffffff1682606001516040516104e3906113a6565b5f6040518083038185875af1925050503d805f811461051d576040519150601f19603f3d011682016040523d82523d5f602084013e610522565b606091505b5050905080610566576040517f08c379a000000000000000000000000000000000000000000000000000000000815260040161055d90611404565b60405180910390fd5b8373ffffffffffffffffffffffffffffffffffffffff16857f7d285cc9741ddca237fb19e4e73a51fe9a053ecebd84b06fc478dcdd24f0cab584606001516040516105b19190610c4b565b60405180910390a35050505050565b5f803411610603576040517f08c379a00000000000000000000000000000000000000000000000000000000081526004016105fa9061146c565b60405180910390fd5b5f60015f8154809291906106169061148a565b9190505590505f60025f8381526020019081526020015f20905033815f015f6101000a81548173ffffffffffffffffffffffffffffffffffffffff021916908373ffffffffffffffffffffffffffffffffffffffff16021790555084848260010191826106849291906116cc565b503481600201819055503373ffffffffffffffffffffffffffffffffffffffff16827f6cf53aa7292e664152c2ea948c3b3c95d4b05c36daeb2626d0293473c4a4a153346040516106d59190610c4b565b60405180910390a3819250505092915050565b5f8054906101000a900473ffffffffffffffffffffffffffffffffffffffff1681565b6002602052805f5260405f205f91509050805f015f9054906101000a900473ffffffffffffffffffffffffffffffffffffffff169080600101805461074f90611508565b80601f016020809104026020016040519081016040528092919081815260200182805461077b90611508565b80156107c65780601f1061079d576101008083540402835291602001916107c6565b820191905f5260205f20905b8154815290600101906020018083116107a957829003601f168201915b505050505090806002015490806005015f9054906101000a900460ff16905084565b60015481565b606060025f8381526020019081526020015f2060030180548060200260200160405190810160405280929190818152602001828054801561088157602002820191905f5260205f20905b815f9054906101000a900473ffffffffffffffffffffffffffffffffffffffff1673ffffffffffffffffffffffffffffffffffffffff1681526020019060010190808311610838575b50505050509050919050565b5f60025f8381526020019081526020015f209050805f015f9054906101000a900473ffffffffffffffffffffffffffffffffffffffff1673ffffffffffffffffffffffffffffffffffffffff163373ffffffffffffffffffffffffffffffffffffffff1614610931576040517f08c379a0000000000000000000000000000000000000000000000000000000008152600401610928906117e3565b60405180910390fd5b806005015f9054906101000a900460ff1615610982576040517f08c379a00000000000000000000000000000000000000000000000000000000081526004016109799061184b565b60405180910390fd5b6001816005015f6101000a81548160ff0219169083151502179055505f81600201541115610a83575f815f015f9054906101000a900473ffffffffffffffffffffffffffffffffffffffff1673ffffffffffffffffffffffffffffffffffffffff1682600201546040516109f5906113a6565b5f6040518083038185875af1925050503d805f8114610a2f576040519150601f19603f3d011682016040523d82523d5f602084013e610a34565b606091505b5050905080610a78576040517f08c379a0000000000000000000000000000000000000000000000000000000008152600401610a6f906118b3565b60405180910390fd5b5f8260020181905550505b817fc1fa7142cfb933d0855114a3bffde296944c30b727f297c14d0db4d553d3a5c760405160405180910390a25050565b5f604051905090565b5f80fd5b5f80fd5b5f819050919050565b610ad781610ac5565b8114610ae1575f80fd5b50565b5f81359050610af281610ace565b92915050565b5f73ffffffffffffffffffffffffffffffffffffffff82169050919050565b5f610b2182610af8565b9050919050565b610b3181610b17565b8114610b3b575f80fd5b50565b5f81359050610b4c81610b28565b92915050565b5f8060408385031215610b6857610b67610abd565b5b5f610b7585828601610ae4565b9250506020610b8685828601610b3e565b9150509250929050565b5f80fd5b5f80fd5b5f80fd5b5f8083601f840112610bb157610bb0610b90565b5b8235905067ffffffffffffffff811115610bce57610bcd610b94565b5b602083019150836001820283011115610bea57610be9610b98565b5b9250929050565b5f8060208385031215610c0757610c06610abd565b5b5f83013567ffffffffffffffff811115610c2457610c23610ac1565b5b610c3085828601610b9c565b92509250509250929050565b610c4581610ac5565b82525050565b5f602082019050610c5e5f830184610c3c565b92915050565b5f819050919050565b5f610c87610c82610c7d84610af8565b610c64565b610af8565b9050919050565b5f610c9882610c6d565b9050919050565b5f610ca982610c8e565b9050919050565b610cb981610c9f565b82525050565b5f602082019050610cd25f830184610cb0565b92915050565b5f60208284031215610ced57610cec610abd565b5b5f610cfa84828501610ae4565b91505092915050565b610d0c81610b17565b82525050565b5f81519050919050565b5f82825260208201905092915050565b8281835e5f83830152505050565b5f601f19601f8301169050919050565b5f610d5482610d12565b610d5e8185610d1c565b9350610d6e818560208601610d2c565b610d7781610d3a565b840191505092915050565b5f8115159050919050565b610d9681610d82565b82525050565b5f608082019050610daf5f830187610d03565b8181036020830152610dc18186610d4a565b9050610dd06040830185610c3c565b610ddd6060830184610d8d565b95945050505050565b5f81519050919050565b5f82825260208201905092915050565b5f819050602082019050919050565b610e1881610b17565b82525050565b5f610e298383610e0f565b60208301905092915050565b5f602082019050919050565b5f610e4b82610de6565b610e558185610df0565b9350610e6083610e00565b805f5b83811015610e90578151610e778882610e1e565b9750610e8283610e35565b925050600181019050610e63565b5085935050505092915050565b5f6020820190508181035f830152610eb58184610e41565b905092915050565b7f7461736b20636f6d706c657465640000000000000000000000000000000000005f82015250565b5f610ef1600e83610d1c565b9150610efc82610ebd565b602082019050919050565b5f6020820190508181035f830152610f1e81610ee5565b9050919050565b7f6167656e7420616c7265616479207061696400000000000000000000000000005f82015250565b5f610f59601283610d1c565b9150610f6482610f25565b602082019050919050565b5f6020820190508181035f830152610f8681610f4d565b9050919050565b5f602082019050610fa05f830184610d03565b92915050565b5f80fd5b7f4e487b71000000000000000000000000000000000000000000000000000000005f52604160045260245ffd5b610fe082610d3a565b810181811067ffffffffffffffff82111715610fff57610ffe610faa565b5b80604052505050565b5f611011610ab4565b905061101d8282610fd7565b919050565b5f80fd5b5f61103082610af8565b9050919050565b61104081611026565b811461104a575f80fd5b50565b5f8151905061105b81611037565b92915050565b5f80fd5b5f67ffffffffffffffff82111561107f5761107e610faa565b5b61108882610d3a565b9050602081019050919050565b5f6110a76110a284611065565b611008565b9050828152602081018484840111156110c3576110c2611061565b5b6110ce848285610d2c565b509392505050565b5f82601f8301126110ea576110e9610b90565b5b81516110fa848260208601611095565b91505092915050565b5f8151905061111181610ace565b92915050565b61112081610d82565b811461112a575f80fd5b50565b5f8151905061113b81611117565b92915050565b5f60a0828403121561115657611155610fa6565b5b61116060a0611008565b90505f61116f8482850161104d565b5f83015250602082015167ffffffffffffffff81111561119257611191611022565b5b61119e848285016110d6565b602083015250604082015167ffffffffffffffff8111156111c2576111c1611022565b5b6111ce848285016110d6565b60408301525060606111e284828501611103565b60608301525060806111f68482850161112d565b60808301525092915050565b5f6020828403121561121757611216610abd565b5b5f82015167ffffffffffffffff81111561123457611233610ac1565b5b61124084828501611141565b91505092915050565b7f6167656e7420696e6163746976650000000000000000000000000000000000005f82015250565b5f61127d600e83610d1c565b915061128882611249565b602082019050919050565b5f6020820190508181035f8301526112aa81611271565b9050919050565b7f696e73756666696369656e7420627564676574000000000000000000000000005f82015250565b5f6112e5601383610d1c565b91506112f0826112b1565b602082019050919050565b5f6020820190508181035f830152611312816112d9565b9050919050565b7f4e487b71000000000000000000000000000000000000000000000000000000005f52601160045260245ffd5b5f61135082610ac5565b915061135b83610ac5565b925082820390508181111561137357611372611319565b5b92915050565b5f81905092915050565b50565b5f6113915f83611379565b915061139c82611383565b5f82019050919050565b5f6113b082611386565b9150819050919050565b7f7061796d656e74206661696c65640000000000000000000000000000000000005f82015250565b5f6113ee600e83610d1c565b91506113f9826113ba565b602082019050919050565b5f6020820190508181035f83015261141b816113e2565b9050919050565b7f7a65726f206275646765740000000000000000000000000000000000000000005f82015250565b5f611456600b83610d1c565b915061146182611422565b602082019050919050565b5f6020820190508181035f8301526114838161144a565b9050919050565b5f61149482610ac5565b91507fffffffffffffffffffffffffffffffffffffffffffffffffffffffffffffffff82036114c6576114c5611319565b5b600182019050919050565b5f82905092915050565b7f4e487b71000000000000000000000000000000000000000000000000000000005f52602260045260245ffd5b5f600282049050600182168061151f57607f821691505b602082108103611532576115316114db565b5b50919050565b5f819050815f5260205f209050919050565b5f6020601f8301049050919050565b5f82821b905092915050565b5f600883026115947fffffffffffffffffffffffffffffffffffffffffffffffffffffffffffffffff82611559565b61159e8683611559565b95508019841693508086168417925050509392505050565b5f6115d06115cb6115c684610ac5565b610c64565b610ac5565b9050919050565b5f819050919050565b6115e9836115b6565b6115fd6115f5826115d7565b848454611565565b825550505050565b5f90565b611611611605565b61161c8184846115e0565b505050565b5b8181101561163f576116345f82611609565b600181019050611622565b5050565b601f8211156116845761165581611538565b61165e8461154a565b8101602085101561166d578190505b6116816116798561154a565b830182611621565b50505b505050565b5f82821c905092915050565b5f6116a45f1984600802611689565b1980831691505092915050565b5f6116bc8383611695565b9150826002028217905092915050565b6116d683836114d1565b67ffffffffffffffff8111156116ef576116ee610faa565b5b6116f98254611508565b611704828285611643565b5f601f831160018114611731575f841561171f578287013590505b61172985826116b1565b865550611790565b601f19841661173f86611538565b5f5b8281101561176657848901358255600182019150602085019450602081019050611741565b86831015611783578489013561177f601f891682611695565b8355505b6001600288020188555050505b50505050505050565b7f6e6f7420726571756573746572000000000000000000000000000000000000005f82015250565b5f6117cd600d83610d1c565b91506117d882611799565b602082019050919050565b5f6020820190508181035f8301526117fa816117c1565b9050919050565b7f616c726561647920636f6d706c657465640000000000000000000000000000005f82015250565b5f611835601183610d1c565b915061184082611801565b602082019050919050565b5f6020820190508181035f83015261186281611829565b9050919050565b7f726566756e64206661696c6564000000000000000000000000000000000000005f82015250565b5f61189d600d83610d1c565b91506118a882611869565b602082019050919050565b5f6020820190508181035f8301526118ca81611891565b905091905056fea264697066735822122041fb980ef897bfefd7607bf97e6cdb988e480440841cfc101af4b0b7b16191ea64736f6c634300081a0033","linkReferences":{}},"methodIdentifiers":{"completeTask(uint256)":"e1e29558","createTask(string)":"111002aa","getAssignedAgents(uint256)":"bed37db8","hireAgent(uint256,address)":"04d09ed3","registry()":"7b103999","taskCount()":"b6cb58a5","tasks(uint256)":"8d977672"},"id":23}