{"abi":[{"type":"function","name":"agentList","inputs":[{"name":"","type":"uint256","internalType":"uint256"}],"outputs":[{"name":"","type":"address","internalType":"address"}],"stateMutability":"view"},{"type":"function","name":"agents","inputs":[{"name":"a","type":"address","internalType":"address"}],"outputs":[{"name":"","type":"tuple","internalType":"struct AgentRegistry.Agent","components":[{"name":"wallet","type":"address","internalType":"address payable"},{"name":"endpoint","type":"string","internalType":"string"},{"name":"capability","type":"string","internalType":"string"},{"name":"pricePerTask","type":"uint256","internalType":"uint256"},{"name":"active","type":"bool","internalType":"bool"}]}],"stateMutability":"view"},{"type":"function","name":"deactivate","inputs":[],"outputs":[],"stateMutability":"nonpayable"},{"type":"function","name":"findByCapability","inputs":[{"name":"capability","type":"string","internalType":"string"}],"outputs":[{"name":"","type":"address[]","internalType":"address[]"}],"stateMutability":"view"},{"type":"function","name":"register","inputs":[{"name":"endpoint","type":"string","internalType":"string"},{"name":"capability","type":"string","internalType":"string"},{"name":"pricePerTask","type":"uint256","internalType":"uint256"}],"outputs":[],"stateMutability":"nonpayable"},{"type":"function","name":"totalAgents","inputs":[],"outputs":[{"name":"","type":"uint256","internalType":"uint256"}],"stateMutability":"view"},{"type":"function","name":"update","inputs":[{"name":"endpoint","type":"string","internalType":"string"},{"name":"pricePerTask","type":"uint256","internalType":"uint256"}],"outputs":[],"stateMutability":"nonpayable"},{"type":"event","name":"AgentDeactivated","inputs":[{"name":"agent","type":"address","indexed":true,"internalType":"address"}],"anonymous":false},{"type":"event","name":"AgentRegistered","inputs":[{"name":"agent","type":"address","indexed":true,"internalType":"address"},{"name":"capability","type":"string","indexed":false,"internalType":"string"},{"name":"price","type":"uint256","indexed":false,"internalType":"uint256"}],"anonymous":false},{"type":"event","name":"AgentUpdated","inputs":[{"name":"agent","type":"address","indexed":true,"internalType":"address"}],"anonymous":false}],"bytecode":{"object":"0x6080604052348015600e575f80fd5b506118e88061001c5f395ff3fe608060405234801561000f575f80fd5b506004361061007b575f3560e01c806351b42b001161005957806351b42b00146100fb578063c505371214610105578063e8a6055814610123578063fd66091e1461013f5761007b565b80632f80c54f1461007f57806336b3b3f4146100af5780634ee5c2ee146100df575b5f80fd5b61009960048036038101906100949190610d48565b61016f565b6040516100a69190610db2565b60405180910390f35b6100c960048036038101906100c49190610e2c565b6101aa565b6040516100d69190610f2e565b60405180910390f35b6100f960048036038101906100f49190610f4e565b61054b565b005b6101036106b1565b005b61010d61074c565b60405161011a9190610fba565b60405180910390f35b61013d60048036038101906101389190610fd3565b610758565b005b6101596004803603810190610154919061108e565b610adb565b60405161016691906111ec565b60405180910390f35b6001818154811061017e575f80fd5b905f5260205f20015f915054906101000a900473ffffffffffffffffffffffffffffffffffffffff1681565b60605f83836040516101bd929190611248565b604051809103902090505f805b600180549050811015610318575f80600183815481106101ed576101ec611260565b5b905f5260205f20015f9054906101000a900473ffffffffffffffffffffffffffffffffffffffff1673ffffffffffffffffffffffffffffffffffffffff1673ffffffffffffffffffffffffffffffffffffffff1681526020019081526020015f206004015f9054906101000a900460ff1680156102f75750825f806001848154811061027c5761027b611260565b5b905f5260205f20015f9054906101000a900473ffffffffffffffffffffffffffffffffffffffff1673ffffffffffffffffffffffffffffffffffffffff1673ffffffffffffffffffffffffffffffffffffffff1681526020019081526020015f206002016040516102ed919061137c565b6040518091039020145b1561030b578180610307906113bf565b9250505b80806001019150506101ca565b505f8167ffffffffffffffff81111561033457610333611406565b5b6040519080825280602002602001820160405280156103625781602001602082028036833780820191505090505b5090505f805b60018054905081101561053d575f806001838154811061038b5761038a611260565b5b905f5260205f20015f9054906101000a900473ffffffffffffffffffffffffffffffffffffffff1673ffffffffffffffffffffffffffffffffffffffff1673ffffffffffffffffffffffffffffffffffffffff1681526020019081526020015f206004015f9054906101000a900460ff1680156104955750845f806001848154811061041a57610419611260565b5b905f5260205f20015f9054906101000a900473ffffffffffffffffffffffffffffffffffffffff1673ffffffffffffffffffffffffffffffffffffffff1673ffffffffffffffffffffffffffffffffffffffff1681526020019081526020015f2060020160405161048b919061137c565b6040518091039020145b1561053057600181815481106104ae576104ad611260565b5b905f5260205f20015f9054906101000a900473ffffffffffffffffffffffffffffffffffffffff168383806104e2906113bf565b9450815181106104f5576104f4611260565b5b602002602001019073ffffffffffffffffffffffffffffffffffffffff16908173ffffffffffffffffffffffffffffffffffffffff16815250505b8080600101915050610368565b508194505050505092915050565b5f803373ffffffffffffffffffffffffffffffffffffffff1673ffffffffffffffffffffffffffffffffffffffff1681526020019081526020015f206004015f9054906101000a900460ff166105d6576040517f08c379a00000000000000000000000000000000000000000000000000000000081526004016105cd9061148d565b60405180910390fd5b82825f803373ffffffffffffffffffffffffffffffffffffffff1673ffffffffffffffffffffffffffffffffffffffff1681526020019081526020015f206001019182610624929190611652565b50805f803373ffffffffffffffffffffffffffffffffffffffff1673ffffffffffffffffffffffffffffffffffffffff1681526020019081526020015f20600301819055503373ffffffffffffffffffffffffffffffffffffffff167fe9f337c154e801e0f86b6bc993df9a2cd349bb210385592c7a52e38ea726334f60405160405180910390a2505050565b5f805f3373ffffffffffffffffffffffffffffffffffffffff1673ffffffffffffffffffffffffffffffffffffffff1681526020019081526020015f206004015f6101000a81548160ff0219169083151502179055503373ffffffffffffffffffffffffffffffffffffffff167fa58c733780f5c1527d6106ff1e731cbf2e9ffc0eb11ad399ca33ea55f057ddf460405160405180910390a2565b5f600180549050905090565b5f838390501161079d576040517f08c379a000000000000000000000000000000000000000000000000000000000815260040161079490611769565b60405180910390fd5b5f803373ffffffffffffffffffffffffffffffffffffffff1673ffffffffffffffffffffffffffffffffffffffff1681526020019081526020015f206004015f9054906101000a900460ff1615801561087e57505f73ffffffffffffffffffffffffffffffffffffffff165f803373ffffffffffffffffffffffffffffffffffffffff1673ffffffffffffffffffffffffffffffffffffffff1681526020019081526020015f205f015f9054906101000a900473ffffffffffffffffffffffffffffffffffffffff1673ffffffffffffffffffffffffffffffffffffffff16145b156108e457600133908060018154018082558091505060019003905f5260205f20015f9091909190916101000a81548173ffffffffffffffffffffffffffffffffffffffff021916908373ffffffffffffffffffffffffffffffffffffffff1602179055505b6040518060a001604052803373ffffffffffffffffffffffffffffffffffffffff16815260200186868080601f0160208091040260200160405190810160405280939291908181526020018383808284375f81840152601f19601f82011690508083019250505050505050815260200184848080601f0160208091040260200160405190810160405280939291908181526020018383808284375f81840152601f19601f820116905080830192505050505050508152602001828152602001600115158152505f803373ffffffffffffffffffffffffffffffffffffffff1673ffffffffffffffffffffffffffffffffffffffff1681526020019081526020015f205f820151815f015f6101000a81548173ffffffffffffffffffffffffffffffffffffffff021916908373ffffffffffffffffffffffffffffffffffffffff1602179055506020820151816001019081610a3f9190611787565b506040820151816002019081610a559190611787565b50606082015181600301556080820151816004015f6101000a81548160ff0219169083151502179055509050503373ffffffffffffffffffffffffffffffffffffffff167f023c5efe572c42192271951adb0e77f97d7fc84bc761d026189ac08617346824848484604051610acc93929190611882565b60405180910390a25050505050565b610ae3610cc9565b5f808373ffffffffffffffffffffffffffffffffffffffff1673ffffffffffffffffffffffffffffffffffffffff1681526020019081526020015f206040518060a00160405290815f82015f9054906101000a900473ffffffffffffffffffffffffffffffffffffffff1673ffffffffffffffffffffffffffffffffffffffff1673ffffffffffffffffffffffffffffffffffffffff168152602001600182018054610b8e906112ba565b80601f0160208091040260200160405190810160405280929190818152602001828054610bba906112ba565b8015610c055780601f10610bdc57610100808354040283529160200191610c05565b820191905f5260205f20905b815481529060010190602001808311610be857829003601f168201915b50505050508152602001600282018054610c1e906112ba565b80601f0160208091040260200160405190810160405280929190818152602001828054610c4a906112ba565b8015610c955780601f10610c6c57610100808354040283529160200191610c95565b820191905f5260205f20905b815481529060010190602001808311610c7857829003601f168201915b5050505050815260200160038201548152602001600482015f9054906101000a900460ff1615151515815250509050919050565b6040518060a001604052805f73ffffffffffffffffffffffffffffffffffffffff16815260200160608152602001606081526020015f81526020015f151581525090565b5f80fd5b5f80fd5b5f819050919050565b610d2781610d15565b8114610d31575f80fd5b50565b5f81359050610d4281610d1e565b92915050565b5f60208284031215610d5d57610d5c610d0d565b5b5f610d6a84828501610d34565b91505092915050565b5f73ffffffffffffffffffffffffffffffffffffffff82169050919050565b5f610d9c82610d73565b9050919050565b610dac81610d92565b82525050565b5f602082019050610dc55f830184610da3565b92915050565b5f80fd5b5f80fd5b5f80fd5b5f8083601f840112610dec57610deb610dcb565b5b8235905067ffffffffffffffff811115610e0957610e08610dcf565b5b602083019150836001820283011115610e2557610e24610dd3565b5b9250929050565b5f8060208385031215610e4257610e41610d0d565b5b5f83013567ffffffffffffffff811115610e5f57610e5e610d11565b5b610e6b85828601610dd7565b92509250509250929050565b5f81519050919050565b5f82825260208201905092915050565b5f819050602082019050919050565b610ea981610d92565b82525050565b5f610eba8383610ea0565b60208301905092915050565b5f602082019050919050565b5f610edc82610e77565b610ee68185610e81565b9350610ef183610e91565b805f5b83811015610f21578151610f088882610eaf565b9750610f1383610ec6565b925050600181019050610ef4565b5085935050505092915050565b5f6020820190508181035f830152610f468184610ed2565b905092915050565b5f805f60408486031215610f6557610f64610d0d565b5b5f84013567ffffffffffffffff811115610f8257610f81610d11565b5b610f8e86828701610dd7565b93509350506020610fa186828701610d34565b9150509250925092565b610fb481610d15565b82525050565b5f602082019050610fcd5f830184610fab565b92915050565b5f805f805f60608688031215610fec57610feb610d0d565b5b5f86013567ffffffffffffffff81111561100957611008610d11565b5b61101588828901610dd7565b9550955050602086013567ffffffffffffffff81111561103857611037610d11565b5b61104488828901610dd7565b9350935050604061105788828901610d34565b9150509295509295909350565b61106d81610d92565b8114611077575f80fd5b50565b5f8135905061108881611064565b92915050565b5f602082840312156110a3576110a2610d0d565b5b5f6110b08482850161107a565b91505092915050565b5f6110c382610d73565b9050919050565b6110d3816110b9565b82525050565b5f81519050919050565b5f82825260208201905092915050565b8281835e5f83830152505050565b5f601f19601f8301169050919050565b5f61111b826110d9565b61112581856110e3565b93506111358185602086016110f3565b61113e81611101565b840191505092915050565b61115281610d15565b82525050565b5f8115159050919050565b61116c81611158565b82525050565b5f60a083015f8301516111875f8601826110ca565b506020830151848203602086015261119f8282611111565b915050604083015184820360408601526111b98282611111565b91505060608301516111ce6060860182611149565b5060808301516111e16080860182611163565b508091505092915050565b5f6020820190508181035f8301526112048184611172565b905092915050565b5f81905092915050565b828183375f83830152505050565b5f61122f838561120c565b935061123c838584611216565b82840190509392505050565b5f611254828486611224565b91508190509392505050565b7f4e487b71000000000000000000000000000000000000000000000000000000005f52603260045260245ffd5b7f4e487b71000000000000000000000000000000000000000000000000000000005f52602260045260245ffd5b5f60028204905060018216806112d157607f821691505b6020821081036112e4576112e361128d565b5b50919050565b5f819050815f5260205f209050919050565b5f8154611308816112ba565b611312818661120c565b9450600182165f811461132c576001811461134157611373565b60ff1983168652811515820286019350611373565b61134a856112ea565b5f5b8381101561136b5781548189015260018201915060208101905061134c565b838801955050505b50505092915050565b5f61138782846112fc565b915081905092915050565b7f4e487b71000000000000000000000000000000000000000000000000000000005f52601160045260245ffd5b5f6113c982610d15565b91507fffffffffffffffffffffffffffffffffffffffffffffffffffffffffffffffff82036113fb576113fa611392565b5b600182019050919050565b7f4e487b71000000000000000000000000000000000000000000000000000000005f52604160045260245ffd5b5f82825260208201905092915050565b7f6e6f7420726567697374657265640000000000000000000000000000000000005f82015250565b5f611477600e83611433565b915061148282611443565b602082019050919050565b5f6020820190508181035f8301526114a48161146b565b9050919050565b5f82905092915050565b5f819050815f5260205f209050919050565b5f6020601f8301049050919050565b5f82821b905092915050565b5f600883026115117fffffffffffffffffffffffffffffffffffffffffffffffffffffffffffffffff826114d6565b61151b86836114d6565b95508019841693508086168417925050509392505050565b5f819050919050565b5f61155661155161154c84610d15565b611533565b610d15565b9050919050565b5f819050919050565b61156f8361153c565b61158361157b8261155d565b8484546114e2565b825550505050565b5f90565b61159761158b565b6115a2818484611566565b505050565b5b818110156115c5576115ba5f8261158f565b6001810190506115a8565b5050565b601f82111561160a576115db816114b5565b6115e4846114c7565b810160208510156115f3578190505b6116076115ff856114c7565b8301826115a7565b50505b505050565b5f82821c905092915050565b5f61162a5f198460080261160f565b1980831691505092915050565b5f611642838361161b565b9150826002028217905092915050565b61165c83836114ab565b67ffffffffffffffff81111561167557611674611406565b5b61167f82546112ba565b61168a8282856115c9565b5f601f8311600181146116b7575f84156116a5578287013590505b6116af8582611637565b865550611716565b601f1984166116c5866114b5565b5f5b828110156116ec578489013582556001820191506020850194506020810190506116c7565b868310156117095784890135611705601f89168261161b565b8355505b6001600288020188555050505b50505050505050565b7f656d707479206361706162696c697479000000000000000000000000000000005f82015250565b5f611753601083611433565b915061175e8261171f565b602082019050919050565b5f6020820190508181035f83015261178081611747565b9050919050565b611790826110d9565b67ffffffffffffffff8111156117a9576117a8611406565b5b6117b382546112ba565b6117be8282856115c9565b5f60209050601f8311600181146117ef575f84156117dd578287015190505b6117e78582611637565b86555061184e565b601f1984166117fd866114b5565b5f5b82811015611824578489015182556001820191506020850194506020810190506117ff565b86831015611841578489015161183d601f89168261161b565b8355505b6001600288020188555050505b505050505050565b5f6118618385611433565b935061186e838584611216565b61187783611101565b840190509392505050565b5f6040820190508181035f83015261189b818587611856565b90506118aa6020830184610fab565b94935050505056fea2646970667358221220155b3072e9235a75526409443965578176163876487946adbea22ccc9014171b64736f6c634300081a0033","linkReferences":{}},"methodIdentifiers":{"agentList(uint256)":"2f80c54f","agents(address)":"fd66091e","deactivate()":"51b42b00","findByCapability(string)":"36b3b3f4","register(string,string,uint256)":"e8a60558","totalAgents()":"c5053712","update(string,uint256)":"4ee5c2ee"},"id":21}