{"abi":[{"type":"function","name":"getGranteePerms","inputs":[{"name":"grantee","type":"address","internalType":"address"}],"outputs":[{"name":"","type":"uint256[]","internalType":"uint256[]"}],"stateMutability":"view"},{"type":"function","name":"grantPermission","inputs":[{"name":"grantee","type":"address","internalType":"address"},{"name":"allowance","type":"uint256","internalType":"uint256"},{"name":"duration","type":"uint256","internalType":"uint256"}],"outputs":[{"name":"","type":"uint256","internalType":"uint256"}],"stateMutability":"payable"},{"type":"function","name":"granteePerms","inputs":[{"name":"","type":"address","internalType":"address"},{"name":"","type":"uint256","internalType":"uint256"}],"outputs":[{"name":"","type":"uint256","internalType":"uint256"}],"stateMutability":"view"},{"type":"function","name":"permCount","inputs":[],"outputs":[{"name":"","type":"uint256","internalType":"uint256"}],"stateMutability":"view"},{"type":"function","name":"permissions","inputs":[{"name":"","type":"uint256","internalType":"uint256"}],"outputs":[{"name":"granter","type":"address","internalType":"address"},{"name":"grantee","type":"address","internalType":"address"},{"name":"allowance","type":"uint256","internalType":"uint256"},{"name":"spent","type":"uint256","internalType":"uint256"},{"name":"expiry","type":"uint256","internalType":"uint256"},{"name":"revoked","type":"bool","internalType":"bool"}],"stateMutability":"view"},{"type":"function","name":"revokePermission","inputs":[{"name":"permId","type":"uint256","internalType":"uint256"}],"outputs":[],"stateMutability":"nonpayable"},{"type":"function","name":"usePermission","inputs":[{"name":"permId","type":"uint256","internalType":"uint256"},{"name":"recipient","type":"address","internalType":"address payable"},{"name":"amount","type":"uint256","internalType":"uint256"}],"outputs":[],"stateMutability":"nonpayable"},{"type":"event","name":"PermissionGranted","inputs":[{"name":"permId","type":"uint256","indexed":true,"internalType":"uint256"},{"name":"granter","type":"address","indexed":true,"internalType":"address"},{"name":"grantee","type":"address","indexed":true,"internalType":"address"},{"name":"allowance","type":"uint256","indexed":false,"internalType":"uint256"},{"name":"expiry","type":"uint256","indexed":false,"internalType":"uint256"}],"anonymous":false},{"type":"event","name":"PermissionRevoked","inputs":[{"name":"permId","type":"uint256","indexed":true,"internalType":"uint256"},{"name":"refund","type":"uint256","indexed":false,"internalType":"uint256"}],"anonymous":false},{"type":"event","name":"PermissionUsed","inputs":[{"name":"permId","type":"uint256","indexed":true,"internalType":"uint256"},{"name":"recipient","type":"address","indexed":true,"internalType":"address"},{"name":"amount","type":"uint256","indexed":false,"internalType":"uint256"}],"anonymous":false},{"type":"error","name":"AllowanceMismatch","inputs":[]},{"type":"error","name":"AlreadyRevoked","inputs":[]},{"type":"error","name":"ExceedsAllowance","inputs":[]},{"type":"error","name":"NotAuthorized","inputs":[]},{"type":"error","name":"NotGrantee","inputs":[]},{"type":"error","name":"PermissionAlreadyRevoked","inputs":[]},{"type":"error","name":"PermissionExpired","inputs":[]},{"type":"error","name":"TransferFailed","inputs":[]}],"bytecode":{"object":"0x6080604052348015600e575f5ffd5b50610f7f8061001c5f395ff3fe60806040526004361061006f575f3560e01c8063645f977b1161004d578063645f977b146101205780638e1dc4781461014a578063980fd97814610186578063f55e822d146101ae5761006f565b80633a1c1b1d1461007357806358886dba146100af5780635ee2429b146100f0575b5f5ffd5b34801561007e575f5ffd5b5061009960048036038101906100949190610b11565b6101d6565b6040516100a69190610b5e565b60405180910390f35b3480156100ba575f5ffd5b506100d560048036038101906100d09190610b77565b610201565b6040516100e796959493929190610bcb565b60405180910390f35b61010a60048036038101906101059190610c2a565b610283565b6040516101179190610b5e565b60405180910390f35b34801561012b575f5ffd5b506101346104ef565b6040516101419190610b5e565b60405180910390f35b348015610155575f5ffd5b50610170600480360381019061016b9190610c7a565b6104f4565b60405161017d9190610d5c565b60405180910390f35b348015610191575f5ffd5b506101ac60048036038101906101a79190610db7565b610587565b005b3480156101b9575f5ffd5b506101d460048036038101906101cf9190610b77565b610805565b005b6002602052815f5260405f2081815481106101ef575f80fd5b905f5260205f20015f91509150505481565b6001602052805f5260405f205f91509050805f015f9054906101000a900473ffffffffffffffffffffffffffffffffffffffff1690806001015f9054906101000a900473ffffffffffffffffffffffffffffffffffffffff1690806002015490806003015490806004015490806005015f9054906101000a900460ff16905086565b5f8234146102bd576040517fc00e0cb100000000000000000000000000000000000000000000000000000000815260040160405180910390fd5b5f5f5f8154809291906102cf90610e34565b9190505590505f83426102e29190610e7b565b90506040518060c001604052803373ffffffffffffffffffffffffffffffffffffffff1681526020018773ffffffffffffffffffffffffffffffffffffffff1681526020018681526020015f81526020018281526020015f151581525060015f8481526020019081526020015f205f820151815f015f6101000a81548173ffffffffffffffffffffffffffffffffffffffff021916908373ffffffffffffffffffffffffffffffffffffffff1602179055506020820151816001015f6101000a81548173ffffffffffffffffffffffffffffffffffffffff021916908373ffffffffffffffffffffffffffffffffffffffff16021790555060408201518160020155606082015181600301556080820151816004015560a0820151816005015f6101000a81548160ff02191690831515021790555090505060025f8773ffffffffffffffffffffffffffffffffffffffff1673ffffffffffffffffffffffffffffffffffffffff1681526020019081526020015f2082908060018154018082558091505060019003905f5260205f20015f90919091909150558573ffffffffffffffffffffffffffffffffffffffff163373ffffffffffffffffffffffffffffffffffffffff16837ff8df449da0e7b3345f2e56522310339e79caf40121b8320c0d184383d91f28eb88856040516104db929190610eae565b60405180910390a481925050509392505050565b5f5481565b606060025f8373ffffffffffffffffffffffffffffffffffffffff1673ffffffffffffffffffffffffffffffffffffffff1681526020019081526020015f2080548060200260200160405190810160405280929190818152602001828054801561057b57602002820191905f5260205f20905b815481526020019060010190808311610567575b50505050509050919050565b5f60015f8581526020019081526020015f209050806001015f9054906101000a900473ffffffffffffffffffffffffffffffffffffffff1673ffffffffffffffffffffffffffffffffffffffff163373ffffffffffffffffffffffffffffffffffffffff1614610623576040517fbf4a6c7a00000000000000000000000000000000000000000000000000000000815260040160405180910390fd5b806005015f9054906101000a900460ff161561066b576040517f347b5b9700000000000000000000000000000000000000000000000000000000815260040160405180910390fd5b80600401544211156106a9576040517fe64c17a100000000000000000000000000000000000000000000000000000000815260040160405180910390fd5b80600201548282600301546106be9190610e7b565b11156106f6576040517f9d835a0a00000000000000000000000000000000000000000000000000000000815260040160405180910390fd5b81816003015f8282546107099190610e7b565b925050819055505f8373ffffffffffffffffffffffffffffffffffffffff168360405161073590610f02565b5f6040518083038185875af1925050503d805f811461076f576040519150601f19603f3d011682016040523d82523d5f602084013e610774565b606091505b50509050806107af576040517f90b8ec1800000000000000000000000000000000000000000000000000000000815260040160405180910390fd5b8373ffffffffffffffffffffffffffffffffffffffff16857ffd68844924c54de4ef4583872c2ed6777894d6d7d839917d95de2c814e966bb7856040516107f69190610b5e565b60405180910390a35050505050565b5f60015f8381526020019081526020015f209050805f015f9054906101000a900473ffffffffffffffffffffffffffffffffffffffff1673ffffffffffffffffffffffffffffffffffffffff163373ffffffffffffffffffffffffffffffffffffffff16141580156108c65750806001015f9054906101000a900473ffffffffffffffffffffffffffffffffffffffff1673ffffffffffffffffffffffffffffffffffffffff163373ffffffffffffffffffffffffffffffffffffffff1614155b156108fd576040517fea8e4eb500000000000000000000000000000000000000000000000000000000815260040160405180910390fd5b806005015f9054906101000a900460ff1615610945576040517f905e710700000000000000000000000000000000000000000000000000000000815260040160405180910390fd5b6001816005015f6101000a81548160ff0219169083151502179055505f816003015482600201546109769190610f16565b90505f811115610a43575f825f015f9054906101000a900473ffffffffffffffffffffffffffffffffffffffff1673ffffffffffffffffffffffffffffffffffffffff16826040516109c790610f02565b5f6040518083038185875af1925050503d805f8114610a01576040519150601f19603f3d011682016040523d82523d5f602084013e610a06565b606091505b5050905080610a41576040517f90b8ec1800000000000000000000000000000000000000000000000000000000815260040160405180910390fd5b505b827f29bf13520d7d838f6f4c468057ec45796904d705e2404b68ebb593adb0a607df82604051610a739190610b5e565b60405180910390a2505050565b5f5ffd5b5f73ffffffffffffffffffffffffffffffffffffffff82169050919050565b5f610aad82610a84565b9050919050565b610abd81610aa3565b8114610ac7575f5ffd5b50565b5f81359050610ad881610ab4565b92915050565b5f819050919050565b610af081610ade565b8114610afa575f5ffd5b50565b5f81359050610b0b81610ae7565b92915050565b5f5f60408385031215610b2757610b26610a80565b5b5f610b3485828601610aca565b9250506020610b4585828601610afd565b9150509250929050565b610b5881610ade565b82525050565b5f602082019050610b715f830184610b4f565b92915050565b5f60208284031215610b8c57610b8b610a80565b5b5f610b9984828501610afd565b91505092915050565b610bab81610aa3565b82525050565b5f8115159050919050565b610bc581610bb1565b82525050565b5f60c082019050610bde5f830189610ba2565b610beb6020830188610ba2565b610bf86040830187610b4f565b610c056060830186610b4f565b610c126080830185610b4f565b610c1f60a0830184610bbc565b979650505050505050565b5f5f5f60608486031215610c4157610c40610a80565b5b5f610c4e86828701610aca565b9350506020610c5f86828701610afd565b9250506040610c7086828701610afd565b9150509250925092565b5f60208284031215610c8f57610c8e610a80565b5b5f610c9c84828501610aca565b91505092915050565b5f81519050919050565b5f82825260208201905092915050565b5f819050602082019050919050565b610cd781610ade565b82525050565b5f610ce88383610cce565b60208301905092915050565b5f602082019050919050565b5f610d0a82610ca5565b610d148185610caf565b9350610d1f83610cbf565b805f5b83811015610d4f578151610d368882610cdd565b9750610d4183610cf4565b925050600181019050610d22565b5085935050505092915050565b5f6020820190508181035f830152610d748184610d00565b905092915050565b5f610d8682610a84565b9050919050565b610d9681610d7c565b8114610da0575f5ffd5b50565b5f81359050610db181610d8d565b92915050565b5f5f5f60608486031215610dce57610dcd610a80565b5b5f610ddb86828701610afd565b9350506020610dec86828701610da3565b9250506040610dfd86828701610afd565b9150509250925092565b7f4e487b71000000000000000000000000000000000000000000000000000000005f52601160045260245ffd5b5f610e3e82610ade565b91507fffffffffffffffffffffffffffffffffffffffffffffffffffffffffffffffff8203610e7057610e6f610e07565b5b600182019050919050565b5f610e8582610ade565b9150610e9083610ade565b9250828201905080821115610ea857610ea7610e07565b5b92915050565b5f604082019050610ec15f830185610b4f565b610ece6020830184610b4f565b9392505050565b5f81905092915050565b50565b5f610eed5f83610ed5565b9150610ef882610edf565b5f82019050919050565b5f610f0c82610ee2565b9150819050919050565b5f610f2082610ade565b9150610f2b83610ade565b9250828203905081811115610f4357610f42610e07565b5b9291505056fea2646970667358221220bff114e1ff550cce6d3f721746e42daccadb2ccbc4cc589933c9ec9baecddf1b64736f6c63430008230033","linkReferences":{}},"methodIdentifiers":{"getGranteePerms(address)":"8e1dc478","grantPermission(address,uint256,uint256)":"5ee2429b","granteePerms(address,uint256)":"3a1c1b1d","permCount()":"645f977b","permissions(uint256)":"58886dba","revokePermission(uint256)":"f55e822d","usePermission(uint256,address,uint256)":"980fd978"},"id":17}